{
  "contractName": "BookStore",
  "abi": [
    {
      "constant": false,
      "inputs": [
        {
          "name": "_fullname",
          "type": "string"
        },
        {
          "name": "_discription",
          "type": "string"
        },
        {
          "name": "_price",
          "type": "uint256"
        }
      ],
      "name": "sellBook",
      "outputs": [],
      "payable": false,
      "stateMutability": "nonpayable",
      "type": "function"
    },
    {
      "constant": true,
      "inputs": [],
      "name": "getBook",
      "outputs": [
        {
          "name": "_sender",
          "type": "address"
        },
        {
          "name": "_fullname",
          "type": "string"
        },
        {
          "name": "_discription",
          "type": "string"
        },
        {
          "name": "_price",
          "type": "uint256"
        }
      ],
      "payable": false,
      "stateMutability": "view",
      "type": "function"
    }
  ],
  "bytecode": "0x608060405234801561001057600080fd5b50610501806100206000396000f30060806040526004361061004c576000357c0100000000000000000000000000000000000000000000000000000000900463ffffffff1680633b0c197e14610051578063cbb458a914610187575b600080fd5b34801561005d57600080fd5b50610066610240565b604051808573ffffffffffffffffffffffffffffffffffffffff1673ffffffffffffffffffffffffffffffffffffffff1681526020018060200180602001848152602001838103835286818151815260200191508051906020019080838360005b838110156100e25780820151818401526020810190506100c7565b50505050905090810190601f16801561010f5780820380516001836020036101000a031916815260200191505b50838103825285818151815260200191508051906020019080838360005b8381101561014857808201518184015260208101905061012d565b50505050905090810190601f1680156101755780820380516001836020036101000a031916815260200191505b50965050505050505060405180910390f35b34801561019357600080fd5b5061023e600480360381019080803590602001908201803590602001908080601f0160208091040260200160405190810160405280939291908181526020018383808284378201915050505050509192919290803590602001908201803590602001908080601f0160208091040260200160405190810160405280939291908181526020018383808284378201915050505050509192919290803590602001909291905050506103b6565b005b600060608060008060009054906101000a900473ffffffffffffffffffffffffffffffffffffffff1660016002600354828054600181600116156101000203166002900480601f0160208091040260200160405190810160405280929190818152602001828054600181600116156101000203166002900480156103055780601f106102da57610100808354040283529160200191610305565b820191906000526020600020905b8154815290600101906020018083116102e857829003601f168201915b50505050509250818054600181600116156101000203166002900480601f0160208091040260200160405190810160405280929190818152602001828054600181600116156101000203166002900480156103a15780601f10610376576101008083540402835291602001916103a1565b820191906000526020600020905b81548152906001019060200180831161038457829003601f168201915b50505050509150935093509350935090919293565b336000806101000a81548173ffffffffffffffffffffffffffffffffffffffff021916908373ffffffffffffffffffffffffffffffffffffffff160217905550826001908051906020019061040c929190610430565b508160029080519060200190610423929190610430565b5080600381905550505050565b828054600181600116156101000203166002900490600052602060002090601f016020900481019282601f1061047157805160ff191683800117855561049f565b8280016001018555821561049f579182015b8281111561049e578251825591602001919060010190610483565b5b5090506104ac91906104b0565b5090565b6104d291905b808211156104ce5760008160009055506001016104b6565b5090565b905600a165627a7a72305820b1077ee0034f65d498cfc51311ac79780ca1b2b859b4871dbc32956bb44772980029",
  "source": "// SPDX-License-Identifier: MIT\r\npragma solidity >=0.4.22 <0.9.0;\r\n\r\ncontract BookStore{\r\n    address sender;\r\n     string fullname ;\r\n     string discription;\r\n     uint price;\r\n   \r\n    function sellBook(string memory _fullname,string memory _discription, uint _price)public {\r\n            sender=msg.sender;\r\n            fullname= _fullname;\r\n            discription= _discription;\r\n            price= _price;\r\n   \r\n  }\r\n      function getBook()public view returns(\r\n            address _sender,\r\n            string memory _fullname,\r\n            string memory _discription,\r\n            uint _price\r\n   ){\r\n                return(sender,fullname,discription,price);\r\n   }\r\n}",
  "sourcePath": "E:\\test blockchain\\tests\\Employees\\contracts\\BookStore.sol",
  "compiler": {
    "name": "solc",
    "version": "0.4.22+commit.4cb486ee.Emscripten.clang"
  },
  "schemaVersion": "3.4.9",
  "updatedAt": "2022-08-27T22:35:24.423Z",
  "networkType": "ethereum",
  "devdoc": {
    "methods": {}
  },
  "userdoc": {
    "methods": {}
  }
}